:100000000C94F8020C9420030C9420030C9420030D
:100010000C9420030C9420030C9420030C942003D4
:100020000C9420030C9420030C9420030C942003C4
:100030000C9420030C9420030C9420030C942003B4
:100040000C9419080C9420030C9420030C942003A6
:100050000C9420030C9420030C9420030C94200394
:100060000C9420030C9420034602000000FF0800BB
:10007000053E5B4F5B3E053E6B4F6B3E051C3E7C79
:100080003E1C05183C7E3C18051C577D571C051C62
:100090005E7F5E1C0400183C1805FFE7C3E7FF0401
:1000A0000018241805FFE7DBE7FF0530483A060E85
:1000B00005262979292605407F05050705407F0586
:1000C000253F055A3CE73C5A057F3E1C1C080508A5
:1000D0001C1C3E7F0514227F221405FFFFFFFFFF3B
:1000E00005F0F0F0F0F003FFFFFF05000000FFFF58
:1000F000050F0F0F0F0F0508047E04080510207E62
:1001000020100508082A1C0805081C2A080805AA4A
:10011000005500AA05AA55AA55AA0530383E383020
:1001200005060E3E0E06020000015F0307000705EC
:10013000147F147F1405444AFF4A32056313086490
:10014000630536494936480107033E4141034141B1
:100150003E05082A1C2A080508083E08080260E037
:100160000408080808026060056010080403053EE2
:100170005149453E0304027F0571494949460541FD
:1001800049494936050F0808087F054F4949493153
:10019000053E4949493005030101017F05364949BA
:1001A000493605064949493E026C6C026CEC03086D
:1001B0001422041414141403221408050159090903
:1001C00006053E415D594E057E0909097E057F49B8
:1001D000494936053E41414141057F4141413E0586
:1001E0007F49494941057F09090901053E414149C6
:1001F00079057F0808087F03417F4105304141416F
:100200003F057F08142241057F40404040057F02A2
:100210000C027F057F0408107F053E4141413E05E9
:100220007F09090906053E4141617E057F091929BB
:10023000460546494949310501017F0101053F4015
:1002400040403F051F2040201F053F4038403F05EC
:1002500063140814630503047804030561514945D8
:1002600043037F41410503040810600341417F05BA
:100270000402010204048080808003010204043827
:1002800044447C047F44443804384444440438449F
:10029000447F043854545804047E05010418A4A46F
:1002A0007C047F040478017D0384857C047F10280E
:1002B00044017F057C04780478047C0404780438C5
:1002C00044443804FC24241804182424FC047C042A
:1002D0000408045854543403047F04043C40407C14
:1002E000041C20407C053C4030403C046C10106CE9
:1002F000041CA0A07C046454544C04083641410101
:100300007F04414136080402010201057F41414159
:100310007F053E55555541053844443844057C2AEF
:100320002A3E14057E0202060605027E027E0205B2
:100330006355494163053844443C0405407E201E12
:10034000200506027E0202086313086463006060F1
:10035000052A2A2A2A2A03514A4403444A510500FD
:1003600000FF010303E080FF053612362436030246
:100370000502021818021010053040FF0101041F89
:1003800001011E000000000901017F017F020C0233
:100390007F0000000000000100017D0418247E247D
:1003A00004447E454105221C141C2205012A7C2A96
:1003B000010177044E55553903020002077E81BDC5
:1003C000A5A5817E0326292F0508142A14220408D6
:1003D00008081803080808077E81BD95A9817E05D5
:1003E00001010101010302050203242E2403191552
:1003F000120315150A02020104F8204078050609C7
:100400007F017F021818040080A0C003121F100390
:100410002629260522142A140808402F1008041E35
:10042000117C08402F10080462554C0915553F10E7
:1004300008041E117C053048484D400578151614F7
:1004400078057814161578057A1514157A05781636
:10045000151679057815141578057814151478078C
:100460007E09097F494941059EA1612121057C54EE
:10047000554644057C54564544057E55544546052D
:100480007C5554454403457E4403447E4503467DE4
:100490004603457C4505087F49413E057C0A1122FB
:1004A0007D053844454638053844464538053A45C3
:1004B00044453A05384645463905384544453805EA
:1004C0002214081422057C625A463E053C404142F3
:1004D0003C053C4042413C053C4241423C053C41DC
:1004E00040413C0502047A0502043F12120C057ECD
:1004F00049494E30043845467C043844467D04382A
:1005000046457E043A45467D043845447D04304ADC
:100510004D7A0720545438545458049CA262220443
:10052000385556580438545659043856555A0438D4
:1005300055545902017A027A0103027902030278C2
:100540000204304B4B3C047A090A710430494A30AA
:100550000430484A3104304A49320432494A3104AD
:10056000394444390508082A08080438544C38042A
:10057000384142780438404279043842417A043A9A
:1005800040407A0418A0A27904FC282810041AA07C
:10059000A07A00000000240027002A0000000000CC
:1005A000250028002B000000000023002600290061
:1005B0000404040404040404020202020202030309
:1005C0000303030301020408102040800102040811
:1005D00010200102040810200000000800020100A1
:1005E0000003040700000000000000007A0ADE0A91
:1005F00011241FBECFEFD8E0DEBFCDBF11E0A0E0D9
:10060000B1E0E8E5FAE102C005900D92AA30B10729
:10061000D9F725E0AAE0B1E001C01D92A137B207E9
:10062000E1F712E0C7EFD2E004C02197FE010E947B
:10063000ED0BC63FD107C9F70E9463080C941F0D4C
:100640000C940000833081F028F4813099F08230DE
:10065000A9F008958730A9F08830C9F08430B1F44A
:10066000809180008F7D03C0809180008F77809380
:100670008000089584B58F7784BD089584B58F7DFB
:10068000FBCF8091B0008F778093B0000895809168
:10069000B0008F7DF9CFCF93DF93282F30E0F901A1
:1006A000E852FA4F8491F901EC53FA4FD491F901D1
:1006B000E055FA4FC491CC23A1F081110E9422038E
:1006C000EC2FF0E0EE0FFF1FEA55FA4FA591B49121
:1006D000EC91ED2381E090E009F480E0DF91CF918F
:1006E000089580E090E0FACF1F93CF93DF93282FF7
:1006F00030E0F901E852FA4F8491F901EC53FA4FD6
:10070000D491F901E055FA4FC491CC23A9F0162FEA
:1007100081110E942203EC2FF0E0EE0FFF1FE45640
:10072000FA4FA591B4918FB7F894EC91111108C0CC
:10073000D095DE23DC938FBFDF91CF911F91089579
:10074000DE2BF8CFCF93DF9390E0FC01EC53FA4F10
:10075000249180559A4FFC0184918823D1F090E038
:10076000880F991FFC01EE56FA4FA591B491FC0138
:10077000E456FA4FC591D491623071F49FB7F89462
:100780003C91822F809583238C93E8812E2B2883A4
:100790009FBFDF91CF9108958FB7F894EC912E2BE6
:1007A0002C938FBFF6CF3FB7F89480916905909155
:1007B0006A05A0916B05B0916C0526B5A89B05C094
:1007C0002F3F19F00196A11DB11D3FBFBA2FA92FD0
:1007D000982F8827BC01CD01620F711D811D911DCD
:1007E00042E0660F771F881F991F4A95D1F7089539
:1007F000CF92DF92EF92FF920F931F93CF93DF93ED
:10080000EC0188858823A1F080910D01882361F097
:100810008FB7F89490910D01913041F59DB390936D
:100820000C019DB39DBB8FBF80E58CBD81E08DBD6C
:1008300060E08F810E94740388858823D1F030E0C6
:1008400020E08B8590E0880F991F28173907C8F59D
:10085000EE85FF85E20FF31F80818EBD00000DB491
:1008600007FEFDCF8EB52F5F3F4FEBCF80930C017E
:10087000DBCF10E000E08B8590E0880F991F081710
:100880001907F8F4EE85FF85E00FF11FE080DE80A8
:10089000CD8088E0F82E6E2D661F6627661F8C2D92
:1008A0000E947403EE0C61E08D2D0E94740360E0E1
:1008B0008D2D0E947403FA94F110EDCF0F5F1F4F3E
:1008C000DACF61E08F810E9474038885882371F0FC
:1008D00080910D01882351F09FB7F89420910D016C
:1008E00080910C01213059F48DBB9FBFDF91CF91D6
:1008F0001F910F91FF90EF90DF90CF9008958FBFE1
:10090000F5CFFC01438550E0440F551F70E060E0D7
:10091000868597850C94180D8F929F92AF92BF9207
:10092000EF92FF920F931F93CF93DF93FC01EA01A5
:1009300073E0D695C7957A95E1F77C2F8385C81724
:1009400008F0FFC0683008F0FCC07A0187E0E822B8
:10095000FF248E01112799E0C99FE0011124A4858D
:10096000B585AC0FBD1F2481862F90E03281438175
:10097000332309F44AC02223C9F027E030E0281BC2
:10098000390BA20FB31F2C91442391F047E050E0A4
:100990004E195F09812C912C5401839404C0880C5A
:1009A000991CAA1CBB1C4A95D2F70EC09C01E9CF2A
:1009B000812C912C540183940E2C04C0880C991C1A
:1009C000AA1CBB1C0A94D2F7822A8C9224853585F6
:1009D0002C0F3D1FD90118965C914481A281AA2356
:1009E00009F4A5C0442381F1A7E0B0E07D01E81A35
:1009F000F90A81E090E0A0E0B0E004C0880F991F00
:100A0000AA1FBB1FEA94D2F72AC0222371F027E065
:100A100030E02E193F09A20FB31F2C91442339F067
:100A200047E050E0481B590BB5CF9701F4CF812C1C
:100A3000912C54018394062E04C0880C991CAA1C86
:100A4000BB1C0A94D2F7C0CF81E090E0A0E0B0E0F8
:100A500004C0880F991FAA1FBB1F6A95D2F7852B68
:100A6000D90118968C939488992009F46CC08385D9
:100A7000781708F050C07F01B12CA12C88248394F2
:100A80008A0CD7011C96ED91FC91EC0FFD1F80851F
:100A900090E00A2C02C0959587950A94E2F780FFB2
:100AA0002BC0C7010E948104F70183858150990BF7
:100AB000801B910B880F991F26853785820F931F06
:100AC000DC018C920484F585E02DEC0FFD1FEA0D0E
:100AD000FB1D4081F70183858150990B801B910B91
:100AE000880F991F26853785820F931FDC01119689
:100AF0004C93C7010E94F803BFEFAB1ABB0AE8E0B2
:100B0000AE16B10409F0BACFD7011C968D919C9115
:100B1000C80FD91F1886892DDF91CF911F910F9192
:100B2000FF90EF90BF90AF909F908F9008954423D7
:100B300009F45FCF87E090E0DC01AE19BF097D01C9
:100B400058CF912CE8CF99249394E5CFCF92DF92A0
:100B5000EF92FF920F931F93CF93DF93EC01DD246D
:100B6000D394F12CE12C01E010E0B9E0CB2ECE01C2
:100B70000E94810498010E2C02C0220F331F0A9498
:100B8000E2F7E0E090E08B85E81798F5EC9DA00196
:100B90001124AC85BD85A40FB51F18966C9170E02B
:100BA00062237323672B19F16E2F70E08150990B2C
:100BB000861B970B880F991FAE85BF85A80FB91F9D
:100BC000DC92AC85BD85A40FB51FAE0DBF1DFC9199
:100BD0008B858150990B861B970B880F991F4E852B
:100BE0005F85840F951FDC011196FC9391E0EF5F08
:100BF000CACF992319F0CE010E94F803BFEFEB1A78
:100C0000FB0AD39488E0E816F10409F0B0CF80E045
:100C100099E02B85821748F4EC85FD85899FE00DCE
:100C2000F11D112410868F5FF4CFDF91CF911F91BA
:100C30000F91FF90EF90DF90CF900895DF92EF92A9
:100C4000FF920F931F93CF93DF936A30710508F0E3
:100C50005FC07A018B01EC01DB840E94810460E0BB
:100C6000EE2D7FEF7D0D0230110509F447C0A8F489
:100C70000115110501F18E2F9BE00130110509F1DD
:100C80006F5F761780F7CE01DF91CF911F910F91A3
:100C9000FF90EF90DF900C94F8030330110589F179
:100CA0000430110569F781E0E114F10409F480E0F2
:100CB000819599E006C081E0E114F10409F080E03B
:100CC0009CE0462F50E02B852150330B241B350B25
:100CD000220F331FAE85BF85A20FB31F9C932B85B8
:100CE0002150330B241B350B220F331F4E855F859C
:100CF000240F351FD90111968C93C2CF8E2F9AE005
:100D0000E0CF81E0E114F10409F480E09FE0D9CF65
:100D100021E04130510509F020E06B30710571F0A0
:100D2000FC01248B4130510561F4DF91CF911F917B
:100D30000F91FF90EF90DF900C94A605DC01559683
:100D40002C93DF91CF911F910F91FF90EF90DF9047
:100D50000895CF93DF93DC011B963C91315020E046
:100D6000C9E078E06FEF2C9FA0011124FC01A4855D
:100D7000B585A40FB51FFD01D72F1192DA95E9F7BC
:100D8000DC011C96ED91FC911D97E40FF51F608727
:100D90002F5F321740F754962C91222321F0DF91D8
:100DA000CF910C94A605DF91CF910895CF93DF9357
:100DB000EC018885882399F09FB7F89480910B0106
:100DC000882319F0815080930B0180910B018111D0
:100DD00005C08CB58F7B8CBD10920D019FBF8C859B
:100DE0009D850E948F0C8E859F85DF91CF910C94FD
:100DF0008F0CCF92DF92EF92FF92CF93DF93EC01B3
:100E00008885882309F4A4C0FFB6F89480910B016B
:100E1000811127C0EAEBF5E08491EEECF5E09491C6
:100E2000E82FF0E0EE0FFF1FEE56FA4FA591B491B8
:100E3000EC91E92321F461E08AE00E94740361E00F
:100E40008AE00E94A2038CB580618CBD8CB5806461
:100E50008CBD61E08DE00E94A20361E08BE00E9406
:100E6000A20380910B018F5F80930B01FFBE61E0B5
:100E70008F810E94A20361E08F810E947403198A0E
:100E8000188A1B8A1A8A8E899F898856904009F48D
:100E90007CC0E8E6F0E0FF8BEE8B188E88E0898F4F
:100EA0001A8E1C8E1B8E8FEF90E09E8F8D8F18A256
:100EB0001F8EE491E63461F5E9E6F0E0E491E1307B
:100EC00009F44FC082E090E0E23001F5EAE6F0E09C
:100ED0008491EBE6F0E0E49190E0982F88278E0F64
:100EE000911D9C8F8B8FECE6F0E08491EDE6F0E0B5
:100EF000E49190E0982F88278E0F911D9E8F8D8F03
:100F0000EEE6F0E0E491E98F87E090E098A38F8F20
:100F1000CF8CD8A0F12CE12C2B8D3C8D4D8D5E8D8E
:100F200060E04217530780F1F601E859FF4F8491C2
:100F3000681708F4682F90E0B0E0A0E00196A11DCA
:100F4000B11DC80ED91EEA1EFB1E2F5F3F4FE9CF11
:100F500061E08D810E94A20361E08E810E94A20364
:100F600086CFEAE6F0E0E491F0E0FC8FEB8FEBE671
:100F7000F0E0E491F0E0FE8FED8FECE6F0E0E4913C
:100F8000E98F85E090E0C2CF6A8FFB8429E0F29E72
:100F9000C00111240E94F30B6C019D878C878F2D5B
:100FA00090E0880F991F0E94F30B9F878E87892BF3
:100FB000F1F1CD28E1F150E040E063E070E0CE01D6
:100FC0000E941E0647E050E061E070E0CE010E9402
:100FD0001E0647E050E062E070E0CE010E941E066F
:100FE00050E040E064E070E0CE010E941E06CE01B9
:100FF0000E94A90650E040E070E060E0CE010E944F
:101000001E0650E040E06BE070E0CE010E941E063C
:1010100041E050E06AE070E0CE010E941E0681E0EF
:10102000DF91CF91FF90EF90DF90CF90089580E017
:10103000F7CF1F920F920FB60F9211242F933F9369
:101040008F939F93AF93BF938091650590916605B1
:10105000A0916705B09168053091640523E0230FE6
:101060002D3758F50196A11DB11D2093640580937D
:10107000650590936605A0936705B0936805809118
:10108000690590916A05A0916B05B0916C05019678
:10109000A11DB11D8093690590936A05A0936B050E
:1010A000B0936C05BF91AF919F918F913F912F911C
:1010B0000F900FBE0F901F90189526E8230F0296F1
:1010C000A11DB11DD2CF789484B5826084BD84B552
:1010D000816084BD85B5826085BD85B5816085BD33
:1010E00080916E00816080936E00109281008091EB
:1010F0008100826080938100809181008160809373
:101100008100809180008160809380008091B10097
:1011100084608093B1008091B00081608093B000C2
:1011200080917A00846080937A0080917A00826056
:1011300080937A0080917A00816080937A00809118
:101140007A00806880937A001092C1008FE291E06B
:101150000E94F9068EE091E00E94F90662E081E0CB
:101160000E94A20362E085E00E94A20362E082E0A6
:101170000E94A20362E084E00E94A203CFE0CC2E92
:10118000D12CE12CF12CD2E02D2E312CC1E0D0E07D
:10119000609150057091510540915001509151015D
:1011A0002091500330915103E2E5F1E081E090E0BD
:1011B0008617970784F4A191B191A417B50749F454
:1011C000DF01A250BE4F0D90BC91A02DA217B30716
:1011D00049F00196EDCF4031510520F42031310521
:1011E00008F454C08FE291E00E94A9068EE091E0DD
:1011F0000E94A906B12C10E000E0A8016B2D8FE23F
:1012000091E00E948C04A8016B2D8EE091E00E9479
:101210008C040F5F1F4F0031110579F7B39420E163
:10122000B212E9CF8FE291E00E94A6058EE091E034
:101230000E94A6050E94D3032B013C01B0E58B2E32
:10124000912CA12CB12C0E94D30364197509860935
:101250009709683E734081059105A8F321E0821A41
:101260009108A108B10888EE480E83E0581E611C61
:10127000711C81149104A104B10429F780E090E06D
:10128000892B09F485CF0E94000082CF81E00E9463
:101290004B03892B09F053C080916205909163053F
:1012A000029721F01092630510926205A090500100
:1012B000B0905101A0925A05B0925B050091500385
:1012C0001091510300935C0510935D0580915605C4
:1012D00090915705909351018093500120915805AA
:1012E000309159053093510320935003409150059C
:1012F0005091510560905E0570905F05809060058B
:1013000090906105BA01FA01EE0FFF1FE05BFE4FFE
:10131000615071093297161617060CF046C06080AE
:101320007180DF01BE5F8C9011969C901197A08216
:10133000B1820C9311961C9353018401E9CF85E08F
:101340000E944B03892B61F48091620590916305A3
:10135000039709F4ABCFD0936305C0936205A6CF82
:1013600082E00E944B03892B61F480916205909189
:101370006305892B09F49ACF3092630520926205A8
:1013800095CF84E00E944B03892B09F08FCF809189
:10139000620590916305019709F488CF83E090E09E
:1013A000909363058093620581CF60925E05709291
:1013B0005F058092600590926105A0925A05B092F7
:1013C0005B0500935C0510935D056091620570916B
:1013D00063056130710509F471C00CF062C02150E1
:1013E0003109672B09F46EC02091500130915101F1
:1013F00080915205909153052817390749F520919E
:101400005003309151038091540590915505281750
:101410003907F1F44F5F5F4F5093510540935005EA
:101420000E94320BA70196010E948A0B6F5F7F4FCB
:1014300070935305609352050E94320BA7019601E9
:101440000E948A0B6F5F7F4F709355056093540520
:101450008FE291E00E94A9068EE091E00E94A90629
:1014600000E511E0B12CA12C80915005909151051F
:10147000A816B90664F5F801619171918F01E250E7
:10148000FE4F408151818FE291E0683071051CF080
:1014900068508EE091E00E948C04FFEFAF1ABF0A03
:1014A000E3CF6230710561F001976330710509F097
:1014B0009BCF909357058093560596CF0196F9CF11
:1014C0002F5F3F4F30935905209358058DCF609182
:1014D00052057091530540915405509155058FE286
:1014E00091E0683071051CF068508EE091E00E9438
:1014F0008C0498CECF92DF92EF92FF92EFE2F1E070
:101500008BE085837DE076836AE0678310864AE01E
:1015100051E05287418792E0938781E0848B22E0FB
:1015200030E031832083828383831482EEE0F1E014
:10153000ACE0A583768367831086528741879387C3
:10154000848B3183208382838383148281E090E0C3
:10155000909351058093500585E090E09093570556
:101560008093560590935905809358050E94320B3D
:101570002FE0C22ED12CE12CF12CA70196010E9464
:101580008A0B6F5F7F4F70935305609352050E94E3
:10159000320BA70196010E948A0B6F5F7F4F7093F9
:1015A00055056093540584E090E090936305809323
:1015B0006205FF90EF90DF90CF9008958EE091E06C
:1015C0000E94D6068FE291E00C94D6068F929F92ED
:1015D000AF92BF92CF92DF92EF92FF92CF93DF93C1
:1015E000EC01688179818A819B8161157105810592
:1015F000910521F464E279ED8BE597E02DE133EF7D
:1016000041E050E00E948A0B49015A019B01AC0164
:10161000A7EAB1E40E94A90B6B017C01ACEEB4EF28
:10162000A50194010E94B70BC60ED71EE81EF91E35
:10163000F7FE06C081E0C81AD108E10880E8F80A80
:10164000C882D982EA82FB82C701B6019F77DF9107
:10165000CF91FF90EF90DF90CF90BF90AF909F9091
:101660008F9008958F929F92AF92BF92CF92DF9208
:10167000EF92FF926091000170910101809102014F
:1016800090910301611571058105910521F464E2D2
:1016900079ED8BE597E02DE133EF41E050E00E94DA
:1016A0008A0B49015A019B01AC01A7EAB1E40E94EF
:1016B000A90B6B017C01ACEEB4EFA50194010E9473
:1016C000B70BC60ED71EE81EF91EF7FE06C081E056
:1016D000C81AD108E10880E8F80AC0920001D09247
:1016E0000101E0920201F0920301C701B6019F7768
:1016F000FF90EF90DF90CF90BF90AF909F908F9032
:10170000089560930001709301018093020190930A
:1017100003010895052E97FB1EF400940E94A10B6F
:1017200057FD07D00E94BC0B07FC03D04EF40C946D
:10173000A10B50954095309521953F4F4F4F5F4FEE
:10174000089590958095709561957F4F8F4F9F4F2D
:1017500008950E94DE0BA59F900DB49F900DA49F4D
:10176000800D911D11240895B7FF0C94A90B0E94C0
:10177000A90B821B930B0895A1E21A2EAA1BBB1B77
:10178000FD010DC0AA1FBB1FEE1FFF1FA217B3074D
:10179000E407F50720F0A21BB30BE40BF50B661F63
:1017A000771F881F991F1A9469F760957095809527
:1017B00090959B01AC01BD01CF010895A29FB0019E
:1017C000B39FC001A39F700D811D1124911DB29F75
:1017D000700D811D1124911D0895EE0FFF1F0590BE
:1017E000F491E02D09940F931F93CF93DF938230F0
:1017F000910510F482E090E0E0916F05F0917005A2
:1018000030E020E0B0E0A0E0309799F421153105F8
:1018100009F44AC0281B390B24303105D8F58A81D8
:101820009B816115710589F1FB0193838283FE0120
:1018300011C0408151810281138148175907E0F09E
:101840004817590799F4109761F012960C93129764
:1018500013961C933296CF01DF91CF911F910F9178
:10186000089500936F0510937005F4CF211531058D
:1018700051F04217530738F0A901DB019A01BD016D
:10188000DF01F801C1CFEF01F9CF9093700580938C
:101890006F05CDCFFE01E20FF31F8193919322508C
:1018A000310939832883D7CF20916D0530916E059A
:1018B000232B41F4209106013091070130936E05EE
:1018C00020936D052091040130910501211531050A
:1018D00041F42DB73EB74091080150910901241BF6
:1018E000350BE0916D05F0916E05E217F307A0F45A
:1018F0002E1B3F0B2817390778F0AC014E5F5F4F66
:101900002417350748F04E0F5F1F50936E05409324
:101910006D05819391939FCFF0E0E0E09CCFCF9352
:10192000DF930097E9F0FC01329713821282A091B5
:101930006F05B0917005ED0130E020E01097A1F443
:1019400020813181820F931F20916D0530916E05AA
:101950002817390709F061C0F0936E05E0936D0513
:10196000DF91CF910895EA01CE17DF07E8F54A81AC
:101970005B819E0141155105B1F7E901FB83EA83C3
:1019800049915991C40FD51FEC17FD0761F480816F
:1019900091810296840F951FE90199838883828142
:1019A00093819B838A83F0E0E0E012968D919C9175
:1019B00013970097B9F52D913C911197CD0102969F
:1019C000820F931F20916D0530916E0528173907FE
:1019D00039F6309751F51092700510926F05B0935B
:1019E0006E05A0936D05BCCFD383C2834081518126
:1019F000840F951FC817D90761F44E5F5F4F888128
:101A00009981480F591F518340838A819B81938319
:101A100082832115310509F0B0CFF0937005E09372
:101A20006F059ECFFD01DC01C0CF13821282D7CF9C
:101A3000DC0101C06D9341505040E0F7089512E081
:101A4000C7EFD2E004C0FE010E94ED0B2196C83F13
:081A5000D107C9F7F894FFCF9C
:0A1A5800010000000000710580008D
:00000001FF
